{
  "contractName": "EventTicketing",
  "abi": [
    {
      "inputs": [
        {
          "internalType": "uint256",
          "name": "_ticketPrice",
          "type": "uint256"
        },
        {
          "internalType": "uint256",
          "name": "_totalTickets",
          "type": "uint256"
        }
      ],
      "stateMutability": "nonpayable",
      "type": "constructor"
    },
    {
      "anonymous": false,
      "inputs": [],
      "name": "EventCancelled",
      "type": "event"
    },
    {
      "anonymous": false,
      "inputs": [
        {
          "indexed": false,
          "internalType": "address",
          "name": "attendee",
          "type": "address"
        }
      ],
      "name": "FeedbackSubmitted",
      "type": "event"
    },
    {
      "anonymous": false,
      "inputs": [
        {
          "indexed": true,
          "internalType": "uint256",
          "name": "merchandiseId",
          "type": "uint256"
        },
        {
          "indexed": false,
          "internalType": "string",
          "name": "name",
          "type": "string"
        },
        {
          "indexed": false,
          "internalType": "uint256",
          "name": "price",
          "type": "uint256"
        },
        {
          "indexed": false,
          "internalType": "uint256",
          "name": "stock",
          "type": "uint256"
        }
      ],
      "name": "MerchandiseAdded",
      "type": "event"
    },
    {
      "anonymous": false,
      "inputs": [
        {
          "indexed": true,
          "internalType": "address",
          "name": "buyer",
          "type": "address"
        },
        {
          "indexed": true,
          "internalType": "uint256",
          "name": "merchandiseId",
          "type": "uint256"
        },
        {
          "indexed": false,
          "internalType": "uint256",
          "name": "quantity",
          "type": "uint256"
        }
      ],
      "name": "MerchandisePurchased",
      "type": "event"
    },
    {
      "anonymous": false,
      "inputs": [
        {
          "indexed": true,
          "internalType": "uint256",
          "name": "merchandiseId",
          "type": "uint256"
        },
        {
          "indexed": false,
          "internalType": "uint256",
          "name": "newStock",
          "type": "uint256"
        }
      ],
      "name": "MerchandiseRestocked",
      "type": "event"
    },
    {
      "anonymous": false,
      "inputs": [
        {
          "indexed": false,
          "internalType": "uint256",
          "name": "pollId",
          "type": "uint256"
        },
        {
          "indexed": false,
          "internalType": "string",
          "name": "question",
          "type": "string"
        },
        {
          "indexed": false,
          "internalType": "string[]",
          "name": "options",
          "type": "string[]"
        }
      ],
      "name": "PollCreated",
      "type": "event"
    },
    {
      "anonymous": false,
      "inputs": [
        {
          "indexed": false,
          "internalType": "address",
          "name": "attendee",
          "type": "address"
        },
        {
          "indexed": false,
          "internalType": "uint256",
          "name": "amount",
          "type": "uint256"
        }
      ],
      "name": "RefundIssued",
      "type": "event"
    },
    {
      "anonymous": false,
      "inputs": [
        {
          "indexed": false,
          "internalType": "address",
          "name": "attendee",
          "type": "address"
        },
        {
          "indexed": false,
          "internalType": "uint256",
          "name": "tickets",
          "type": "uint256"
        },
        {
          "indexed": false,
          "internalType": "uint256",
          "name": "amountPaid",
          "type": "uint256"
        }
      ],
      "name": "TicketPurchased",
      "type": "event"
    },
    {
      "anonymous": false,
      "inputs": [
        {
          "indexed": false,
          "internalType": "address",
          "name": "from",
          "type": "address"
        },
        {
          "indexed": false,
          "internalType": "address",
          "name": "to",
          "type": "address"
        },
        {
          "indexed": false,
          "internalType": "uint256",
          "name": "tickets",
          "type": "uint256"
        }
      ],
      "name": "TicketTransferred",
      "type": "event"
    },
    {
      "anonymous": false,
      "inputs": [
        {
          "indexed": false,
          "internalType": "address",
          "name": "voter",
          "type": "address"
        },
        {
          "indexed": false,
          "internalType": "uint256",
          "name": "pollId",
          "type": "uint256"
        },
        {
          "indexed": false,
          "internalType": "string",
          "name": "option",
          "type": "string"
        }
      ],
      "name": "Voted",
      "type": "event"
    },
    {
      "inputs": [
        {
          "internalType": "address",
          "name": "",
          "type": "address"
        }
      ],
      "name": "amountPaid",
      "outputs": [
        {
          "internalType": "uint256",
          "name": "",
          "type": "uint256"
        }
      ],
      "stateMutability": "view",
      "type": "function"
    },
    {
      "inputs": [
        {
          "internalType": "address",
          "name": "",
          "type": "address"
        }
      ],
      "name": "attendeeFeedbackSubmitted",
      "outputs": [
        {
          "internalType": "bool",
          "name": "",
          "type": "bool"
        }
      ],
      "stateMutability": "view",
      "type": "function"
    },
    {
      "inputs": [],
      "name": "eventCancelled",
      "outputs": [
        {
          "internalType": "bool",
          "name": "",
          "type": "bool"
        }
      ],
      "stateMutability": "view",
      "type": "function"
    },
    {
      "inputs": [
        {
          "internalType": "uint256",
          "name": "",
          "type": "uint256"
        },
        {
          "internalType": "address",
          "name": "",
          "type": "address"
        }
      ],
      "name": "hasVotedOnPoll",
      "outputs": [
        {
          "internalType": "bool",
          "name": "",
          "type": "bool"
        }
      ],
      "stateMutability": "view",
      "type": "function"
    },
    {
      "inputs": [
        {
          "internalType": "uint256",
          "name": "",
          "type": "uint256"
        }
      ],
      "name": "merchandiseList",
      "outputs": [
        {
          "internalType": "string",
          "name": "name",
          "type": "string"
        },
        {
          "internalType": "uint256",
          "name": "price",
          "type": "uint256"
        },
        {
          "internalType": "uint256",
          "name": "stock",
          "type": "uint256"
        }
      ],
      "stateMutability": "view",
      "type": "function"
    },
    {
      "inputs": [],
      "name": "organizer",
      "outputs": [
        {
          "internalType": "address",
          "name": "",
          "type": "address"
        }
      ],
      "stateMutability": "view",
      "type": "function"
    },
    {
      "inputs": [
        {
          "internalType": "uint256",
          "name": "",
          "type": "uint256"
        }
      ],
      "name": "polls",
      "outputs": [
        {
          "internalType": "string",
          "name": "question",
          "type": "string"
        },
        {
          "internalType": "bool",
          "name": "isActive",
          "type": "bool"
        }
      ],
      "stateMutability": "view",
      "type": "function"
    },
    {
      "inputs": [],
      "name": "refundDeadline",
      "outputs": [
        {
          "internalType": "uint256",
          "name": "",
          "type": "uint256"
        }
      ],
      "stateMutability": "view",
      "type": "function"
    },
    {
      "inputs": [],
      "name": "ticketPrice",
      "outputs": [
        {
          "internalType": "uint256",
          "name": "",
          "type": "uint256"
        }
      ],
      "stateMutability": "view",
      "type": "function"
    },
    {
      "inputs": [
        {
          "internalType": "address",
          "name": "",
          "type": "address"
        }
      ],
      "name": "ticketsOwned",
      "outputs": [
        {
          "internalType": "uint256",
          "name": "",
          "type": "uint256"
        }
      ],
      "stateMutability": "view",
      "type": "function"
    },
    {
      "inputs": [],
      "name": "ticketsSold",
      "outputs": [
        {
          "internalType": "uint256",
          "name": "",
          "type": "uint256"
        }
      ],
      "stateMutability": "view",
      "type": "function"
    },
    {
      "inputs": [],
      "name": "totalSales",
      "outputs": [
        {
          "internalType": "uint256",
          "name": "",
          "type": "uint256"
        }
      ],
      "stateMutability": "view",
      "type": "function"
    },
    {
      "inputs": [],
      "name": "totalTickets",
      "outputs": [
        {
          "internalType": "uint256",
          "name": "",
          "type": "uint256"
        }
      ],
      "stateMutability": "view",
      "type": "function"
    },
    {
      "inputs": [
        {
          "internalType": "uint256",
          "name": "tickets",
          "type": "uint256"
        }
      ],
      "name": "buyTicket",
      "outputs": [],
      "stateMutability": "payable",
      "type": "function"
    },
    {
      "inputs": [
        {
          "internalType": "address",
          "name": "to",
          "type": "address"
        },
        {
          "internalType": "uint256",
          "name": "tickets",
          "type": "uint256"
        }
      ],
      "name": "transferTicket",
      "outputs": [],
      "stateMutability": "nonpayable",
      "type": "function"
    },
    {
      "inputs": [],
      "name": "currentTicketPrice",
      "outputs": [
        {
          "internalType": "uint256",
          "name": "",
          "type": "uint256"
        }
      ],
      "stateMutability": "view",
      "type": "function"
    },
    {
      "inputs": [
        {
          "internalType": "string",
          "name": "question",
          "type": "string"
        },
        {
          "internalType": "string[]",
          "name": "options",
          "type": "string[]"
        }
      ],
      "name": "createPoll",
      "outputs": [],
      "stateMutability": "nonpayable",
      "type": "function"
    },
    {
      "inputs": [
        {
          "internalType": "uint256",
          "name": "pollId",
          "type": "uint256"
        },
        {
          "internalType": "string",
          "name": "option",
          "type": "string"
        }
      ],
      "name": "voteOnPoll",
      "outputs": [],
      "stateMutability": "nonpayable",
      "type": "function"
    },
    {
      "inputs": [
        {
          "internalType": "uint256",
          "name": "pollId",
          "type": "uint256"
        }
      ],
      "name": "endPoll",
      "outputs": [],
      "stateMutability": "nonpayable",
      "type": "function"
    },
    {
      "inputs": [],
      "name": "cancelEvent",
      "outputs": [],
      "stateMutability": "nonpayable",
      "type": "function"
    },
    {
      "inputs": [],
      "name": "pullRefund",
      "outputs": [],
      "stateMutability": "nonpayable",
      "type": "function"
    },
    {
      "inputs": [
        {
          "internalType": "string",
          "name": "name",
          "type": "string"
        },
        {
          "internalType": "uint256",
          "name": "price",
          "type": "uint256"
        },
        {
          "internalType": "uint256",
          "name": "stock",
          "type": "uint256"
        }
      ],
      "name": "addMerchandise",
      "outputs": [],
      "stateMutability": "nonpayable",
      "type": "function"
    },
    {
      "inputs": [
        {
          "internalType": "uint256",
          "name": "merchandiseId",
          "type": "uint256"
        },
        {
          "internalType": "uint256",
          "name": "quantity",
          "type": "uint256"
        }
      ],
      "name": "buyMerchandise",
      "outputs": [],
      "stateMutability": "payable",
      "type": "function"
    },
    {
      "inputs": [],
      "name": "withdrawFunds",
      "outputs": [],
      "stateMutability": "nonpayable",
      "type": "function"
    },
    {
      "inputs": [
        {
          "internalType": "uint256",
          "name": "merchandiseId",
          "type": "uint256"
        },
        {
          "internalType": "uint256",
          "name": "additionalStock",
          "type": "uint256"
        }
      ],
      "name": "restockMerchandise",
      "outputs": [],
      "stateMutability": "nonpayable",
      "type": "function"
    },
    {
      "inputs": [],
      "name": "submitFeedback",
      "outputs": [],
      "stateMutability": "nonpayable",
      "type": "function"
    },
    {
      "inputs": [],
      "name": "endTicketSales",
      "outputs": [],
      "stateMutability": "nonpayable",
      "type": "function"
    }
  ],
  "bytecode": "0x60806040526000600760006101000a81548160ff0219169083151502179055503480156200002c57600080fd5b50604051620039c0380380620039c08339818101604052810190620000529190620000e9565b33600260006101000a81548173ffffffffffffffffffffffffffffffffffffffff021916908373ffffffffffffffffffffffffffffffffffffffff1602179055508160038190555080600481905550505062000130565b600080fd5b6000819050919050565b620000c381620000ae565b8114620000cf57600080fd5b50565b600081519050620000e381620000b8565b92915050565b60008060408385031215620001035762000102620000a9565b5b60006200011385828601620000d2565b92505060206200012685828601620000d2565b9150509250929050565b61388080620001406000396000f3fe60806040526004361061019c5760003560e01c8063951e2021116100ec578063e1aa1bcc1161008a578063f43b877811610064578063f43b877814610579578063f7376917146105a2578063fb6c9537146105cb578063fc885142146105e25761019c565b8063e1aa1bcc146104f5578063e33ab5b814610520578063f258a3261461053c5761019c565b8063cf6622ab116100c6578063cf6622ab1461045d578063dd11247e14610474578063e01591061461049f578063e1a494d1146104ca5761019c565b8063951e2021146103b9578063ac2f0074146103f6578063c8531898146104345761019c565b8063612032651161015957806375e5f8021161013357806375e5f802146103115780637e3d71c314610328578063879cb32e146103515780638f15024f1461038e5761019c565b8063612032651461029f5780636605ff66146102ca57806367dd74ca146102f55761019c565b80631209b1f6146101a1578063136a6088146101cc57806324600fc314610209578063268515fa146102205780632eaf35c61461025f57806351958a5614610276575b600080fd5b3480156101ad57600080fd5b506101b661060b565b6040516101c39190611e75565b60405180910390f35b3480156101d857600080fd5b506101f360048036038101906101ee9190611f02565b610611565b6040516102009190611f4a565b60405180910390f35b34801561021557600080fd5b5061021e610631565b005b34801561022c57600080fd5b5061024760048036038101906102429190611f91565b6107c3565b6040516102569392919061204e565b60405180910390f35b34801561026b57600080fd5b50610274610885565b005b34801561028257600080fd5b5061029d6004803603810190610298919061208c565b610a25565b005b3480156102ab57600080fd5b506102b4610b92565b6040516102c191906120db565b60405180910390f35b3480156102d657600080fd5b506102df610bb8565b6040516102ec9190611e75565b60405180910390f35b61030f600480360381019061030a9190611f91565b610bbe565b005b34801561031d57600080fd5b50610326610d30565b005b34801561033457600080fd5b5061034f600480360381019061034a9190612311565b610fb6565b005b34801561035d57600080fd5b5061037860048036038101906103739190611f02565b61115a565b6040516103859190611e75565b60405180910390f35b34801561039a57600080fd5b506103a3611172565b6040516103b09190611e75565b60405180910390f35b3480156103c557600080fd5b506103e060048036038101906103db9190611f02565b611178565b6040516103ed9190611e75565b60405180910390f35b34801561040257600080fd5b5061041d60048036038101906104189190611f91565b611190565b60405161042b929190612389565b60405180910390f35b34801561044057600080fd5b5061045b600480360381019061045691906123b9565b611259565b005b34801561046957600080fd5b506104726113b2565b005b34801561048057600080fd5b5061048961144d565b6040516104969190611e75565b60405180910390f35b3480156104ab57600080fd5b506104b4611453565b6040516104c19190611e75565b60405180910390f35b3480156104d657600080fd5b506104df6114df565b6040516104ec9190611f4a565b60405180910390f35b34801561050157600080fd5b5061050a6114f2565b6040516105179190611e75565b60405180910390f35b61053a600480360381019061053591906123b9565b6114f8565b005b34801561054857600080fd5b50610563600480360381019061055e91906123f9565b611685565b6040516105709190611f4a565b60405180910390f35b34801561058557600080fd5b506105a0600480360381019061059b9190611f91565b6116b4565b005b3480156105ae57600080fd5b506105c960048036038101906105c49190612439565b61183d565b005b3480156105d757600080fd5b506105e0611bcd565b005b3480156105ee57600080fd5b5061060960048036038101906106049190612495565b611d09565b005b60035481565b600b6020528060005260406000206000915054906101000a900460ff1681565b600260009054906101000a900473ffffffffffffffffffffffffffffffffffffffff1673ffffffffffffffffffffffffffffffffffffffff163373ffffffffffffffffffffffffffffffffffffffff16146106c1576040517f08c379a00000000000000000000000000000000000000000000000000000000081526004016106b890612576565b60405180910390fd5b600060065490506000811161070b576040517f08c379a0000000000000000000000000000000000000000000000000000000008152600401610702906125e2565b60405180910390fd5b600060068190555060003373ffffffffffffffffffffffffffffffffffffffff168260405161073990612633565b60006040518083038185875af1925050503d8060008114610776576040519150601f19603f3d011682016040523d82523d6000602084013e61077b565b606091505b50509050806107bf576040517f08c379a00000000000000000000000000000000000000000000000000000000081526004016107b690612694565b60405180910390fd5b5050565b600181815481106107d357600080fd5b90600052602060002090600302016000915090508060000180546107f6906126e3565b80601f0160208091040260200160405190810160405280929190818152602001828054610822906126e3565b801561086f5780601f106108445761010080835404028352916020019161086f565b820191906000526020600020905b81548152906001019060200180831161085257829003601f168201915b5050505050908060010154908060020154905083565b6000600960003373ffffffffffffffffffffffffffffffffffffffff1673ffffffffffffffffffffffffffffffffffffffff1681526020019081526020016000205411610907576040517f08c379a00000000000000000000000000000000000000000000000000000000081526004016108fe90612760565b60405180910390fd5b600b60003373ffffffffffffffffffffffffffffffffffffffff1673ffffffffffffffffffffffffffffffffffffffff16815260200190815260200160002060009054906101000a900460ff1615610994576040517f08c379a000000000000000000000000000000000000000000000000000000000815260040161098b906127cc565b60405180910390fd5b6001600b60003373ffffffffffffffffffffffffffffffffffffffff1673ffffffffffffffffffffffffffffffffffffffff16815260200190815260200160002060006101000a81548160ff0219169083151502179055507f904650d23db0bb68ed10d0b636f800c2ca790178eb2db4d5bb3ec54a960a8aa833604051610a1b91906120db565b60405180910390a1565b80600960003373ffffffffffffffffffffffffffffffffffffffff1673ffffffffffffffffffffffffffffffffffffffff168152602001908152602001600020541015610aa7576040517f08c379a0000000000000000000000000000000000000000000000000000000008152600401610a9e90612838565b60405180910390fd5b80600960003373ffffffffffffffffffffffffffffffffffffffff1673ffffffffffffffffffffffffffffffffffffffff1681526020019081526020016000206000828254610af69190612887565b9250508190555080600960008473ffffffffffffffffffffffffffffffffffffffff1673ffffffffffffffffffffffffffffffffffffffff1681526020019081526020016000206000828254610b4c91906128bb565b925050819055507f17fe3deddce525fa12700a731e77ea94c319000ee656076e9e3f0d21638db766338383604051610b86939291906128ef565b60405180910390a15050565b600260009054906101000a900473ffffffffffffffffffffffffffffffffffffffff1681565b60065481565b600081610bc9611453565b610bd39190612926565b9050803414610c17576040517f08c379a0000000000000000000000000000000000000000000000000000000008152600401610c0e906129b4565b60405180910390fd5b60045482600554610c2891906128bb565b1115610c69576040517f08c379a0000000000000000000000000000000000000000000000000000000008152600401610c6090612838565b60405180910390fd5b81600960003373ffffffffffffffffffffffffffffffffffffffff1673ffffffffffffffffffffffffffffffffffffffff1681526020019081526020016000206000828254610cb891906128bb565b925050819055508160056000828254610cd191906128bb565b925050819055503460066000828254610cea91906128bb565b925050819055507f2a91574e12ad96234e84923e146b0946ecfb871cd8d5534dc1fdcbe87a7c01b3338334604051610d24939291906129d4565b60405180910390a15050565b600760009054906101000a900460ff16610d7f576040517f08c379a0000000000000000000000000000000000000000000000000000000008152600401610d7690612a57565b60405180910390fd5b600854421115610dc4576040517f08c379a0000000000000000000000000000000000000000000000000000000008152600401610dbb90612ac3565b60405180910390fd5b6000600960003373ffffffffffffffffffffffffffffffffffffffff1673ffffffffffffffffffffffffffffffffffffffff16815260200190815260200160002054905060008111610e4b576040517f08c379a0000000000000000000000000000000000000000000000000000000008152600401610e4290612b2f565b60405180910390fd5b6000600a60003373ffffffffffffffffffffffffffffffffffffffff1673ffffffffffffffffffffffffffffffffffffffff1681526020019081526020016000205490506000600960003373ffffffffffffffffffffffffffffffffffffffff1673ffffffffffffffffffffffffffffffffffffffff168152602001908152602001600020819055506000600a60003373ffffffffffffffffffffffffffffffffffffffff1673ffffffffffffffffffffffffffffffffffffffff168152602001908152602001600020819055508160056000828254610f2b9190612887565b925050819055503373ffffffffffffffffffffffffffffffffffffffff166108fc829081150290604051600060405180830381858888f19350505050158015610f78573d6000803e3d6000fd5b507fa171b6942063c6f2800ce40a780edce37baa2b618571b11eedd1e69e626e7d763382604051610faa929190612b4f565b60405180910390a15050565b600260009054906101000a900473ffffffffffffffffffffffffffffffffffffffff1673ffffffffffffffffffffffffffffffffffffffff163373ffffffffffffffffffffffffffffffffffffffff1614611046576040517f08c379a000000000000000000000000000000000000000000000000000000000815260040161103d90612bc4565b60405180910390fd5b60008060018160018154018082558091505003906000526020600020906004020190508281600001908161107a9190612d90565b5060018160030160006101000a81548160ff02191690831515021790555060005b825181101561110857816001018382815181106110bb576110ba612e62565b5b60200260200101519080600181540180825580915050600190039060005260206000200160009091909190915090816110f49190612d90565b50808061110090612e91565b91505061109b565b507f4be3f505bf50604bde92e6940e2df40c36f90cb362640413d520080ca12eabb2600160008054905061113c9190612887565b848460405161114d93929190612fe5565b60405180910390a1505050565b600a6020528060005260406000206000915090505481565b60055481565b60096020528060005260406000206000915090505481565b600081815481106111a057600080fd5b90600052602060002090600402016000915090508060000180546111c3906126e3565b80601f01602080910402602001604051908101604052809291908181526020018280546111ef906126e3565b801561123c5780601f106112115761010080835404028352916020019161123c565b820191906000526020600020905b81548152906001019060200180831161121f57829003601f168201915b5050505050908060030160009054906101000a900460ff16905082565b600260009054906101000a900473ffffffffffffffffffffffffffffffffffffffff1673ffffffffffffffffffffffffffffffffffffffff163373ffffffffffffffffffffffffffffffffffffffff16146112e9576040517f08c379a00000000000000000000000000000000000000000000000000000000081526004016112e09061309c565b60405180910390fd5b6001805490508210611330576040517f08c379a000000000000000000000000000000000000000000000000000000000815260040161132790613108565b60405180910390fd5b60006001838154811061134657611345612e62565b5b906000526020600020906003020190508181600201600082825461136a91906128bb565b92505081905550827f15045ab72f51ac83ffebc67c4f7401e04b53cf03c2522307eb2ba2e256b853f682600201546040516113a59190611e75565b60405180910390a2505050565b600260009054906101000a900473ffffffffffffffffffffffffffffffffffffffff1673ffffffffffffffffffffffffffffffffffffffff163373ffffffffffffffffffffffffffffffffffffffff1614611442576040517f08c379a00000000000000000000000000000000000000000000000000000000081526004016114399061319a565b60405180910390fd5b600554600481905550565b60045481565b6000600260045461146491906131e9565b60055410156114775760035490506114dc565b6004805460036114879190612926565b61149191906131e9565b60055410156114bd57600a6003546114a991906131e9565b6003546114b691906128bb565b90506114dc565b60056003546114cc91906131e9565b6003546114d991906128bb565b90505b90565b600760009054906101000a900460ff1681565b60085481565b600180549050821061153f576040517f08c379a000000000000000000000000000000000000000000000000000000000815260040161153690613108565b60405180910390fd5b60006001838154811061155557611554612e62565b5b9060005260206000209060030201905081816002015410156115ac576040517f08c379a00000000000000000000000000000000000000000000000000000000081526004016115a390613266565b60405180910390fd5b8181600101546115bc9190612926565b34146115fd576040517f08c379a00000000000000000000000000000000000000000000000000000000081526004016115f4906129b4565b60405180910390fd5b818160020160008282546116119190612887565b92505081905550346006600082825461162a91906128bb565b92505081905550823373ffffffffffffffffffffffffffffffffffffffff167f32971cd773f90fbc76d04afd026d550e59f7781bcc8a68182ce50b9404bfc123846040516116789190611e75565b60405180910390a3505050565b600c6020528160005260406000206020528060005260406000206000915091509054906101000a900460ff1681565b600260009054906101000a900473ffffffffffffffffffffffffffffffffffffffff1673ffffffffffffffffffffffffffffffffffffffff163373ffffffffffffffffffffffffffffffffffffffff1614611744576040517f08c379a000000000000000000000000000000000000000000000000000000000815260040161173b906132d2565b60405180910390fd5b600080549050811061178b576040517f08c379a00000000000000000000000000000000000000000000000000000000081526004016117829061333e565b60405180910390fd5b6000818154811061179f5761179e612e62565b5b906000526020600020906004020160030160009054906101000a900460ff166117fd576040517f08c379a00000000000000000000000000000000000000000000000000000000081526004016117f4906133aa565b60405180910390fd5b600080828154811061181257611811612e62565b5b906000526020600020906004020160030160006101000a81548160ff02191690831515021790555050565b6000600960003373ffffffffffffffffffffffffffffffffffffffff1673ffffffffffffffffffffffffffffffffffffffff16815260200190815260200160002054116118bf576040517f08c379a00000000000000000000000000000000000000000000000000000000081526004016118b690613416565b60405180910390fd5b600c600083815260200190815260200160002060003373ffffffffffffffffffffffffffffffffffffffff1673ffffffffffffffffffffffffffffffffffffffff16815260200190815260200160002060009054906101000a900460ff161561195d576040517f08c379a000000000000000000000000000000000000000000000000000000000815260040161195490613482565b60405180910390fd5b60008054905082106119a4576040517f08c379a000000000000000000000000000000000000000000000000000000000815260040161199b9061333e565b60405180910390fd5b600082815481106119b8576119b7612e62565b5b906000526020600020906004020160030160009054906101000a900460ff16611a16576040517f08c379a0000000000000000000000000000000000000000000000000000000008152600401611a0d906134ee565b60405180910390fd5b6000808381548110611a2b57611a2a612e62565b5b906000526020600020906004020190506000805b8260010180549050811015611aac578380519060200120836001018281548110611a6c57611a6b612e62565b5b90600052602060002001604051611a8391906135a6565b604051809103902003611a995760019150611aac565b8080611aa490612e91565b915050611a3f565b5080611aed576040517f08c379a0000000000000000000000000000000000000000000000000000000008152600401611ae490613609565b60405180910390fd5b8160020183604051611aff9190613665565b90815260200160405180910390206000815480929190611b1e90612e91565b91905055506001600c600086815260200190815260200160002060003373ffffffffffffffffffffffffffffffffffffffff1673ffffffffffffffffffffffffffffffffffffffff16815260200190815260200160002060006101000a81548160ff0219169083151502179055507f497ac9c2d8b6e7ea7204365157d9642f36d2b6125352bfa6d0a73328142d0bd9338585604051611bbf9392919061367c565b60405180910390a150505050565b600260009054906101000a900473ffffffffffffffffffffffffffffffffffffffff1673ffffffffffffffffffffffffffffffffffffffff163373ffffffffffffffffffffffffffffffffffffffff1614611c5d576040517f08c379a0000000000000000000000000000000000000000000000000000000008152600401611c549061372c565b60405180910390fd5b600760009054906101000a900460ff1615611cad576040517f08c379a0000000000000000000000000000000000000000000000000000000008152600401611ca490613798565b60405180910390fd5b6001600760006101000a81548160ff02191690831515021790555060b442611cd591906128bb565b6008819055507fc423524f667a9459893f10159c8a95981a43fb77edd414f6325d8439604ad41860405160405180910390a1565b600260009054906101000a900473ffffffffffffffffffffffffffffffffffffffff1673ffffffffffffffffffffffffffffffffffffffff163373ffffffffffffffffffffffffffffffffffffffff1614611d99576040517f08c379a0000000000000000000000000000000000000000000000000000000008152600401611d909061382a565b60405180910390fd5b600160405180606001604052808581526020018481526020018381525090806001815401808255809150506001900390600052602060002090600302016000909190919091506000820151816000019081611df49190612d90565b506020820151816001015560408201518160020155505060018080549050611e1c9190612887565b7f41641677f6b3825a592968a2fecaa3e38761a5b842372e3b30360513fa924f06848484604051611e4f9392919061204e565b60405180910390a2505050565b6000819050919050565b611e6f81611e5c565b82525050565b6000602082019050611e8a6000830184611e66565b92915050565b6000604051905090565b600080fd5b600080fd5b600073ffffffffffffffffffffffffffffffffffffffff82169050919050565b6000611ecf82611ea4565b9050919050565b611edf81611ec4565b8114611eea57600080fd5b50565b600081359050611efc81611ed6565b92915050565b600060208284031215611f1857611f17611e9a565b5b6000611f2684828501611eed565b91505092915050565b60008115159050919050565b611f4481611f2f565b82525050565b6000602082019050611f5f6000830184611f3b565b92915050565b611f6e81611e5c565b8114611f7957600080fd5b50565b600081359050611f8b81611f65565b92915050565b600060208284031215611fa757611fa6611e9a565b5b6000611fb584828501611f7c565b91505092915050565b600081519050919050565b600082825260208201905092915050565b60005b83811015611ff8578082015181840152602081019050611fdd565b60008484015250505050565b6000601f19601f8301169050919050565b600061202082611fbe565b61202a8185611fc9565b935061203a818560208601611fda565b61204381612004565b840191505092915050565b600060608201905081810360008301526120688186612015565b90506120776020830185611e66565b6120846040830184611e66565b949350505050565b600080604083850312156120a3576120a2611e9a565b5b60006120b185828601611eed565b92505060206120c285828601611f7c565b9150509250929050565b6120d581611ec4565b82525050565b60006020820190506120f060008301846120cc565b92915050565b600080fd5b600080fd5b7f4e487b7100000000000000000000000000000000000000000000000000000000600052604160045260246000fd5b61213882612004565b810181811067ffffffffffffffff8211171561215757612156612100565b5b80604052505050565b600061216a611e90565b9050612176828261212f565b919050565b600067ffffffffffffffff82111561219657612195612100565b5b61219f82612004565b9050602081019050919050565b82818337600083830152505050565b60006121ce6121c98461217b565b612160565b9050828152602081018484840111156121ea576121e96120fb565b5b6121f58482856121ac565b509392505050565b600082601f830112612212576122116120f6565b5b81356122228482602086016121bb565b91505092915050565b600067ffffffffffffffff82111561224657612245612100565b5b602082029050602081019050919050565b600080fd5b600061226f61226a8461222b565b612160565b9050808382526020820190506020840283018581111561229257612291612257565b5b835b818110156122d957803567ffffffffffffffff8111156122b7576122b66120f6565b5b8086016122c489826121fd565b85526020850194505050602081019050612294565b5050509392505050565b600082601f8301126122f8576122f76120f6565b5b813561230884826020860161225c565b91505092915050565b6000806040838503121561232857612327611e9a565b5b600083013567ffffffffffffffff81111561234657612345611e9f565b5b612352858286016121fd565b925050602083013567ffffffffffffffff81111561237357612372611e9f565b5b61237f858286016122e3565b9150509250929050565b600060408201905081810360008301526123a38185612015565b90506123b26020830184611f3b565b9392505050565b600080604083850312156123d0576123cf611e9a565b5b60006123de85828601611f7c565b92505060206123ef85828601611f7c565b9150509250929050565b600080604083850312156124105761240f611e9a565b5b600061241e85828601611f7c565b925050602061242f85828601611eed565b9150509250929050565b600080604083850312156124505761244f611e9a565b5b600061245e85828601611f7c565b925050602083013567ffffffffffffffff81111561247f5761247e611e9f565b5b61248b858286016121fd565b9150509250929050565b6000806000606084860312156124ae576124ad611e9a565b5b600084013567ffffffffffffffff8111156124cc576124cb611e9f565b5b6124d8868287016121fd565b93505060206124e986828701611f7c565b92505060406124fa86828701611f7c565b9150509250925092565b7f4f6e6c7920746865206f7267616e697a65722063616e2077697468647261772060008201527f66756e6473000000000000000000000000000000000000000000000000000000602082015250565b6000612560602583611fc9565b915061256b82612504565b604082019050919050565b6000602082019050818103600083015261258f81612553565b9050919050565b7f4e6f2066756e647320746f207769746864726177000000000000000000000000600082015250565b60006125cc601483611fc9565b91506125d782612596565b602082019050919050565b600060208201905081810360008301526125fb816125bf565b9050919050565b600081905092915050565b50565b600061261d600083612602565b91506126288261260d565b600082019050919050565b600061263e82612610565b9150819050919050565b7f4661696c656420746f2073656e64204574686572000000000000000000000000600082015250565b600061267e601483611fc9565b915061268982612648565b602082019050919050565b600060208201905081810360008301526126ad81612671565b9050919050565b7f4e487b7100000000000000000000000000000000000000000000000000000000600052602260045260246000fd5b600060028204905060018216806126fb57607f821691505b60208210810361270e5761270d6126b4565b5b50919050565b7f4d75737420626520616e20617474656e64656500000000000000000000000000600082015250565b600061274a601383611fc9565b915061275582612714565b602082019050919050565b600060208201905081810360008301526127798161273d565b9050919050565b7f466565646261636b20616c7265616479207375626d6974746564000000000000600082015250565b60006127b6601a83611fc9565b91506127c182612780565b602082019050919050565b600060208201905081810360008301526127e5816127a9565b9050919050565b7f4e6f7420656e6f756768207469636b6574730000000000000000000000000000600082015250565b6000612822601283611fc9565b915061282d826127ec565b602082019050919050565b6000602082019050818103600083015261285181612815565b9050919050565b7f4e487b7100000000000000000000000000000000000000000000000000000000600052601160045260246000fd5b600061289282611e5c565b915061289d83611e5c565b92508282039050818111156128b5576128b4612858565b5b92915050565b60006128c682611e5c565b91506128d183611e5c565b92508282019050808211156128e9576128e8612858565b5b92915050565b600060608201905061290460008301866120cc565b61291160208301856120cc565b61291e6040830184611e66565b949350505050565b600061293182611e5c565b915061293c83611e5c565b925082820261294a81611e5c565b9150828204841483151761296157612960612858565b5b5092915050565b7f496e636f7272656374207061796d656e74000000000000000000000000000000600082015250565b600061299e601183611fc9565b91506129a982612968565b602082019050919050565b600060208201905081810360008301526129cd81612991565b9050919050565b60006060820190506129e960008301866120cc565b6129f66020830185611e66565b612a036040830184611e66565b949350505050565b7f4576656e74206e6f742063616e63656c6c656400000000000000000000000000600082015250565b6000612a41601383611fc9565b9150612a4c82612a0b565b602082019050919050565b60006020820190508181036000830152612a7081612a34565b9050919050565b7f526566756e6420646561646c696e652070617373656400000000000000000000600082015250565b6000612aad601683611fc9565b9150612ab882612a77565b602082019050919050565b60006020820190508181036000830152612adc81612aa0565b9050919050565b7f4e6f207469636b65747320746f20726566756e64000000000000000000000000600082015250565b6000612b19601483611fc9565b9150612b2482612ae3565b602082019050919050565b60006020820190508181036000830152612b4881612b0c565b9050919050565b6000604082019050612b6460008301856120cc565b612b716020830184611e66565b9392505050565b7f4f6e6c79206f7267616e697a65722063616e2063726561746520706f6c6c7300600082015250565b6000612bae601f83611fc9565b9150612bb982612b78565b602082019050919050565b60006020820190508181036000830152612bdd81612ba1565b9050919050565b60008190508160005260206000209050919050565b60006020601f8301049050919050565b600082821b905092915050565b600060088302612c467fffffffffffffffffffffffffffffffffffffffffffffffffffffffffffffffff82612c09565b612c508683612c09565b95508019841693508086168417925050509392505050565b6000819050919050565b6000612c8d612c88612c8384611e5c565b612c68565b611e5c565b9050919050565b6000819050919050565b612ca783612c72565b612cbb612cb382612c94565b848454612c16565b825550505050565b600090565b612cd0612cc3565b612cdb818484612c9e565b505050565b5b81811015612cff57612cf4600082612cc8565b600181019050612ce1565b5050565b601f821115612d4457612d1581612be4565b612d1e84612bf9565b81016020851015612d2d578190505b612d41612d3985612bf9565b830182612ce0565b50505b505050565b600082821c905092915050565b6000612d6760001984600802612d49565b1980831691505092915050565b6000612d808383612d56565b9150826002028217905092915050565b612d9982611fbe565b67ffffffffffffffff811115612db257612db1612100565b5b612dbc82546126e3565b612dc7828285612d03565b600060209050601f831160018114612dfa5760008415612de8578287015190505b612df28582612d74565b865550612e5a565b601f198416612e0886612be4565b60005b82811015612e3057848901518255600182019150602085019450602081019050612e0b565b86831015612e4d5784890151612e49601f891682612d56565b8355505b6001600288020188555050505b505050505050565b7f4e487b7100000000000000000000000000000000000000000000000000000000600052603260045260246000fd5b6000612e9c82611e5c565b91507fffffffffffffffffffffffffffffffffffffffffffffffffffffffffffffffff8203612ece57612ecd612858565b5b600182019050919050565b600081519050919050565b600082825260208201905092915050565b6000819050602082019050919050565b600082825260208201905092915050565b6000612f2182611fbe565b612f2b8185612f05565b9350612f3b818560208601611fda565b612f4481612004565b840191505092915050565b6000612f5b8383612f16565b905092915050565b6000602082019050919050565b6000612f7b82612ed9565b612f858185612ee4565b935083602082028501612f9785612ef5565b8060005b85811015612fd35784840389528151612fb48582612f4f565b9450612fbf83612f63565b925060208a01995050600181019050612f9b565b50829750879550505050505092915050565b6000606082019050612ffa6000830186611e66565b818103602083015261300c8185612015565b905081810360408301526130208184612f70565b9050949350505050565b7f4f6e6c79206f7267616e697a65722063616e20726573746f636b206d6572636860008201527f616e646973650000000000000000000000000000000000000000000000000000602082015250565b6000613086602683611fc9565b91506130918261302a565b604082019050919050565b600060208201905081810360008301526130b581613079565b9050919050565b7f4d65726368616e6469736520646f6573206e6f74206578697374000000000000600082015250565b60006130f2601a83611fc9565b91506130fd826130bc565b602082019050919050565b60006020820190508181036000830152613121816130e5565b9050919050565b7f4f6e6c79206f7267616e697a65722063616e20656e64207469636b657420736160008201527f6c65730000000000000000000000000000000000000000000000000000000000602082015250565b6000613184602383611fc9565b915061318f82613128565b604082019050919050565b600060208201905081810360008301526131b381613177565b9050919050565b7f4e487b7100000000000000000000000000000000000000000000000000000000600052601260045260246000fd5b60006131f482611e5c565b91506131ff83611e5c565b92508261320f5761320e6131ba565b5b828204905092915050565b7f4e6f7420656e6f7567682073746f636b00000000000000000000000000000000600082015250565b6000613250601083611fc9565b915061325b8261321a565b602082019050919050565b6000602082019050818103600083015261327f81613243565b9050919050565b7f4f6e6c79206f7267616e697a65722063616e20656e6420706f6c6c7300000000600082015250565b60006132bc601c83611fc9565b91506132c782613286565b602082019050919050565b600060208201905081810360008301526132eb816132af565b9050919050565b7f506f6c6c20646f6573206e6f7420657869737400000000000000000000000000600082015250565b6000613328601383611fc9565b9150613333826132f2565b602082019050919050565b600060208201905081810360008301526133578161331b565b9050919050565b7f506f6c6c20697320616c726561647920656e6465640000000000000000000000600082015250565b6000613394601583611fc9565b915061339f8261335e565b602082019050919050565b600060208201905081810360008301526133c381613387565b9050919050565b7f4d7573742062652061207469636b657420686f6c64657220746f20766f746500600082015250565b6000613400601f83611fc9565b915061340b826133ca565b602082019050919050565b6000602082019050818103600083015261342f816133f3565b9050919050565b7f416c726561647920766f746564206f6e207468697320706f6c6c000000000000600082015250565b600061346c601a83611fc9565b915061347782613436565b602082019050919050565b6000602082019050818103600083015261349b8161345f565b9050919050565b7f506f6c6c206973206e6f74206163746976650000000000000000000000000000600082015250565b60006134d8601283611fc9565b91506134e3826134a2565b602082019050919050565b60006020820190508181036000830152613507816134cb565b9050919050565b60008190508160005260206000209050919050565b60008154613530816126e3565b61353a8186612602565b94506001821660008114613555576001811461356a5761359d565b60ff198316865281151582028601935061359d565b6135738561350e565b60005b8381101561359557815481890152600182019150602081019050613576565b838801955050505b50505092915050565b60006135b28284613523565b915081905092915050565b7f496e76616c696420766f74696e67206f7074696f6e0000000000000000000000600082015250565b60006135f3601583611fc9565b91506135fe826135bd565b602082019050919050565b60006020820190508181036000830152613622816135e6565b9050919050565b600081905092915050565b600061363f82611fbe565b6136498185613629565b9350613659818560208601611fda565b80840191505092915050565b60006136718284613634565b915081905092915050565b600060608201905061369160008301866120cc565b61369e6020830185611e66565b81810360408301526136b08184612015565b9050949350505050565b7f4f6e6c79206f7267616e697a65722063616e2063616e63656c2074686520657660008201527f656e740000000000000000000000000000000000000000000000000000000000602082015250565b6000613716602383611fc9565b9150613721826136ba565b604082019050919050565b6000602082019050818103600083015261374581613709565b9050919050565b7f4576656e7420616c72656164792063616e63656c6c6564000000000000000000600082015250565b6000613782601783611fc9565b915061378d8261374c565b602082019050919050565b600060208201905081810360008301526137b181613775565b9050919050565b7f4f6e6c79206f7267616e697a65722063616e20616464206d65726368616e646960008201527f7365000000000000000000000000000000000000000000000000000000000000602082015250565b6000613814602283611fc9565b915061381f826137b8565b604082019050919050565b6000602082019050818103600083015261384381613807565b905091905056fea2646970667358221220b9d420e2571bd8dd11e34cfeb1d0c88ba2fb683337ed80253fb9fe630a48fae064736f6c63430008130033",
  "immutableReferences": {},
  "source": "// SPDX-License-Identifier: MIT\r\npragma solidity ^0.8.19;\r\n\r\ncontract EventTicketing {\r\n    struct Poll {\r\n        string question;\r\n        string[] options;\r\n        mapping(string => uint) votes;\r\n        bool isActive;\r\n    }\r\n\r\n    struct Merchandise {\r\n        string name;\r\n        uint price;\r\n        uint stock;\r\n    }\r\n    \r\n    Poll[] public polls;\r\n    Merchandise[] public merchandiseList;\r\n    address public organizer;\r\n    uint public ticketPrice;\r\n    uint public totalTickets;\r\n    uint public ticketsSold;\r\n    uint public totalSales;\r\n    bool public eventCancelled = false;\r\n    uint public refundDeadline;\r\n    mapping(address => uint) public ticketsOwned;\r\n    mapping(address => uint) public amountPaid;\r\n    mapping(address => bool) public attendeeFeedbackSubmitted;\r\n    mapping(uint => mapping(address => bool)) public hasVotedOnPoll;\r\n\r\n    event TicketPurchased(address attendee, uint tickets, uint amountPaid);\r\n    event TicketTransferred(address from, address to, uint tickets);\r\n    event FeedbackSubmitted(address attendee);\r\n    event EventCancelled();\r\n    event RefundIssued(address attendee, uint amount);\r\n    event PollCreated(uint pollId, string question, string[] options);\r\n    event Voted(address voter, uint pollId, string option);\r\n    event MerchandiseAdded(uint indexed merchandiseId, string name, uint price, uint stock);\r\n    event MerchandisePurchased(address indexed buyer, uint indexed merchandiseId, uint quantity);\r\n    event MerchandiseRestocked(uint indexed merchandiseId, uint newStock);\r\n\r\n    constructor(uint _ticketPrice, uint _totalTickets) {\r\n        organizer = msg.sender;\r\n        ticketPrice = _ticketPrice;\r\n        totalTickets = _totalTickets;\r\n    }\r\n\r\n    function buyTicket(uint tickets) public payable {\r\n        uint currentPrice = currentTicketPrice() * tickets;\r\n        require(msg.value == currentPrice, \"Incorrect payment\");\r\n        require(ticketsSold + tickets <= totalTickets, \"Not enough tickets\");\r\n        ticketsOwned[msg.sender] += tickets;\r\n        ticketsSold += tickets;\r\n        totalSales += msg.value;\r\n        emit TicketPurchased(msg.sender, tickets, msg.value);\r\n    }\r\n\r\n    function transferTicket(address to, uint tickets) public {\r\n        require(ticketsOwned[msg.sender] >= tickets, \"Not enough tickets\");\r\n        \r\n        ticketsOwned[msg.sender] -= tickets;\r\n        ticketsOwned[to] += tickets;\r\n\r\n        emit TicketTransferred(msg.sender, to, tickets);\r\n    }\r\n\r\n\r\n    function currentTicketPrice() public view returns (uint) {\r\n        if (ticketsSold < totalTickets / 2) {\r\n            return ticketPrice; \r\n        } else if (ticketsSold < (3 * totalTickets) / 4) {\r\n            return ticketPrice + (ticketPrice / 10);\r\n        } else {\r\n            return ticketPrice + (ticketPrice / 5);\r\n        }\r\n    }\r\n\r\n    function createPoll(string memory question, string[] memory options) public {\r\n        require(msg.sender == organizer, \"Only organizer can create polls\");\r\n        \r\n        Poll storage newPoll = polls.push();\r\n        newPoll.question = question;\r\n        newPoll.isActive = true;\r\n\r\n        for (uint i = 0; i < options.length; i++) {\r\n            newPoll.options.push(options[i]);\r\n        }\r\n        \r\n        emit PollCreated(polls.length - 1, question, options);\r\n    }\r\n\r\n    function voteOnPoll(uint pollId, string memory option) public {\r\n        require(ticketsOwned[msg.sender] > 0, \"Must be a ticket holder to vote\");\r\n        require(!hasVotedOnPoll[pollId][msg.sender], \"Already voted on this poll\");\r\n        require(pollId < polls.length, \"Poll does not exist\");\r\n        require(polls[pollId].isActive, \"Poll is not active\");\r\n\r\n        Poll storage poll = polls[pollId];\r\n        bool isValidOption = false;\r\n        for(uint i = 0; i < poll.options.length; i++) {\r\n            if(keccak256(bytes(poll.options[i])) == keccak256(bytes(option))) {\r\n                isValidOption = true;\r\n                break;\r\n            }\r\n        }\r\n        require(isValidOption, \"Invalid voting option\");\r\n\r\n        poll.votes[option]++;\r\n        hasVotedOnPoll[pollId][msg.sender] = true;\r\n        \r\n        emit Voted(msg.sender, pollId, option);\r\n    }\r\n\r\n    function endPoll(uint pollId) public {\r\n        require(msg.sender == organizer, \"Only organizer can end polls\");\r\n        require(pollId < polls.length, \"Poll does not exist\");\r\n        require(polls[pollId].isActive, \"Poll is already ended\");\r\n\r\n        polls[pollId].isActive = false;\r\n    }\r\n\r\n    function cancelEvent() public {\r\n        require(msg.sender == organizer, \"Only organizer can cancel the event\");\r\n        require(!eventCancelled, \"Event already cancelled\");\r\n        eventCancelled = true;\r\n        refundDeadline = block.timestamp + 3 minutes;\r\n        emit EventCancelled();\r\n    }\r\n\r\n    function pullRefund() public {\r\n        require(eventCancelled, \"Event not cancelled\");\r\n        require(block.timestamp <= refundDeadline, \"Refund deadline passed\");\r\n        uint tickets = ticketsOwned[msg.sender];\r\n        require(tickets > 0, \"No tickets to refund\");\r\n\r\n        uint refundAmount = amountPaid[msg.sender];\r\n        ticketsOwned[msg.sender] = 0;\r\n        amountPaid[msg.sender] = 0;\r\n        ticketsSold -= tickets;\r\n        \r\n        payable(msg.sender).transfer(refundAmount);\r\n        emit RefundIssued(msg.sender, refundAmount);\r\n    }\r\n\r\n    function addMerchandise(string memory name, uint price, uint stock) public {\r\n        require(msg.sender == organizer, \"Only organizer can add merchandise\");\r\n        merchandiseList.push(Merchandise(name, price, stock));\r\n        emit MerchandiseAdded(merchandiseList.length - 1, name, price, stock);\r\n    }\r\n\r\n    function buyMerchandise(uint merchandiseId, uint quantity) public payable {\r\n        require(merchandiseId < merchandiseList.length, \"Merchandise does not exist\");\r\n        Merchandise storage item = merchandiseList[merchandiseId];\r\n        require(item.stock >= quantity, \"Not enough stock\");\r\n        require(msg.value == item.price * quantity, \"Incorrect payment\");\r\n\r\n        item.stock -= quantity;\r\n        totalSales += msg.value;\r\n        emit MerchandisePurchased(msg.sender, merchandiseId, quantity);\r\n    }\r\n\r\n    function withdrawFunds() public {\r\n        require(msg.sender == organizer, \"Only the organizer can withdraw funds\");\r\n\r\n        uint amount = totalSales;\r\n        require(amount > 0, \"No funds to withdraw\");\r\n\r\n        totalSales = 0;\r\n\r\n        (bool sent, ) = msg.sender.call{value: amount}(\"\");\r\n        require(sent, \"Failed to send Ether\");\r\n    }\r\n\r\n    function restockMerchandise(uint merchandiseId, uint additionalStock) public {\r\n        require(msg.sender == organizer, \"Only organizer can restock merchandise\");\r\n        require(merchandiseId < merchandiseList.length, \"Merchandise does not exist\");\r\n\r\n        Merchandise storage item = merchandiseList[merchandiseId];\r\n        item.stock += additionalStock;\r\n\r\n        emit MerchandiseRestocked(merchandiseId, item.stock);\r\n    }\r\n\r\n    function submitFeedback() public {\r\n        require(ticketsOwned[msg.sender] > 0, \"Must be an attendee\");\r\n        require(!attendeeFeedbackSubmitted[msg.sender], \"Feedback already submitted\");\r\n        attendeeFeedbackSubmitted[msg.sender] = true;\r\n        emit FeedbackSubmitted(msg.sender);\r\n    }\r\n\r\n    function endTicketSales() public {\r\n        require(msg.sender == organizer, \"Only organizer can end ticket sales\");\r\n        totalTickets = ticketsSold;\r\n    }\r\n}\r\n",
  "sourcePath": "C:\\Users\\gabri\\TicketStore\\contracts\\EventTicketing.sol",
  "compiler": {
    "name": "solc",
    "version": "0.8.19+commit.7dd6d404.Emscripten.clang"
  },
  "schemaVersion": "3.4.16",
  "updatedAt": "2023-12-20T16:08:43.676Z",
  "devdoc": {
    "kind": "dev",
    "methods": {},
    "version": 1
  },
  "userdoc": {
    "kind": "user",
    "methods": {},
    "version": 1
  }
}